{
  "_format": "hh-sol-artifact-1",
  "contractName": "StakingContract",
  "sourceName": "contracts/StakingContract.sol",
  "abi": [
    {
      "inputs": [
        {
          "internalType": "uint256",
          "name": "_interestInPercent",
          "type": "uint256"
        }
      ],
      "stateMutability": "nonpayable",
      "type": "constructor"
    },
    {
      "anonymous": false,
      "inputs": [
        {
          "indexed": false,
          "internalType": "address",
          "name": "_from",
          "type": "address"
        },
        {
          "indexed": false,
          "internalType": "address",
          "name": "_to",
          "type": "address"
        },
        {
          "indexed": false,
          "internalType": "uint256",
          "name": "_amount",
          "type": "uint256"
        }
      ],
      "name": "tokenTransfer",
      "type": "event"
    },
    {
      "inputs": [
        {
          "internalType": "address",
          "name": "",
          "type": "address"
        }
      ],
      "name": "addressStakes",
      "outputs": [
        {
          "internalType": "uint256",
          "name": "stakeTime",
          "type": "uint256"
        },
        {
          "internalType": "uint256",
          "name": "stakedBalance",
          "type": "uint256"
        },
        {
          "internalType": "uint256",
          "name": "stakeProfit",
          "type": "uint256"
        },
        {
          "internalType": "bool",
          "name": "stakeMaturity",
          "type": "bool"
        }
      ],
      "stateMutability": "view",
      "type": "function"
    },
    {
      "inputs": [
        {
          "internalType": "uint256",
          "name": "_amount",
          "type": "uint256"
        }
      ],
      "name": "stake",
      "outputs": [],
      "stateMutability": "nonpayable",
      "type": "function"
    },
    {
      "inputs": [],
      "name": "viewStakeBalance",
      "outputs": [
        {
          "internalType": "uint256",
          "name": "_balance",
          "type": "uint256"
        }
      ],
      "stateMutability": "view",
      "type": "function"
    },
    {
      "inputs": [],
      "name": "viewStakes",
      "outputs": [
        {
          "internalType": "uint256[]",
          "name": "_stakes",
          "type": "uint256[]"
        }
      ],
      "stateMutability": "view",
      "type": "function"
    },
    {
      "inputs": [
        {
          "internalType": "uint256",
          "name": "_amount",
          "type": "uint256"
        }
      ],
      "name": "withdraw",
      "outputs": [
        {
          "internalType": "bool",
          "name": "success",
          "type": "bool"
        }
      ],
      "stateMutability": "nonpayable",
      "type": "function"
    }
  ],
  "bytecode": "0x6080604052600160005561012c60025573bc4ca0eda7647a8ab7c2061c2e118a18a936f13d600360006101000a81548173ffffffffffffffffffffffffffffffffffffffff021916908373ffffffffffffffffffffffffffffffffffffffff1602179055507396f3ce39ad2bfdcf92c0f6e2c2cabf83874660fc600560006101000a81548173ffffffffffffffffffffffffffffffffffffffff021916908373ffffffffffffffffffffffffffffffffffffffff1602179055503480156100c557600080fd5b506040516113e03803806113e083398181016040528101906100e791906101cf565b80600181905550600560009054906101000a900473ffffffffffffffffffffffffffffffffffffffff16600460006101000a81548173ffffffffffffffffffffffffffffffffffffffff021916908373ffffffffffffffffffffffffffffffffffffffff160217905550600360009054906101000a900473ffffffffffffffffffffffffffffffffffffffff16600660006101000a81548173ffffffffffffffffffffffffffffffffffffffff021916908373ffffffffffffffffffffffffffffffffffffffff16021790555050610219565b6000815190506101c981610202565b92915050565b6000602082840312156101e157600080fd5b60006101ef848285016101ba565b91505092915050565b6000819050919050565b61020b816101f8565b811461021657600080fd5b50565b6111b8806102286000396000f3fe608060405234801561001057600080fd5b50600436106100575760003560e01c8063213eda301461005c5780632e1a7d4d1461008f57806397746c76146100bf578063a694fc3a146100dd578063e0af8a02146100f9575b600080fd5b61007660048036038101906100719190610aab565b610117565b6040516100869493929190610de0565b60405180910390f35b6100a960048036038101906100a49190610afd565b610154565b6040516100b69190610d2a565b60405180910390f35b6100c76103d8565b6040516100d49190610d08565b60405180910390f35b6100f760048036038101906100f29190610afd565b610504565b005b61010161097a565b60405161010e9190610dc5565b60405180910390f35b60076020528060005260406000206000915090508060010154908060020154908060030154908060040160009054906101000a900460ff16905084565b600080600760003373ffffffffffffffffffffffffffffffffffffffff1673ffffffffffffffffffffffffffffffffffffffff168152602001908152602001600020905060008160000180549050116101e2576040517f08c379a00000000000000000000000000000000000000000000000000000000081526004016101d990610da5565b60405180910390fd5b6000600760003373ffffffffffffffffffffffffffffffffffffffff1673ffffffffffffffffffffffffffffffffffffffff168152602001908152602001600020905060018160040160006101000a81548160ff0219169083151502179055610280576040517f08c379a000000000000000000000000000000000000000000000000000000000815260040161027790610d85565b60405180910390fd5b83816002015410156102c7576040517f08c379a00000000000000000000000000000000000000000000000000000000081526004016102be90610d45565b60405180910390fd5b838160020160008282546102db9190610f50565b92505081905550600460009054906101000a900473ffffffffffffffffffffffffffffffffffffffff1673ffffffffffffffffffffffffffffffffffffffff1663a9059cbb33866040518363ffffffff1660e01b815260040161033f929190610cdf565b602060405180830381600087803b15801561035957600080fd5b505af115801561036d573d6000803e3d6000fd5b505050506040513d601f19601f820116820180604052508101906103919190610ad4565b50600192507f15eaef6b52cca0422fcfd03599b7a19d583624be50c7516f29664df698613aad3033866040516103c993929190610ca8565b60405180910390a15050919050565b60606000600760003373ffffffffffffffffffffffffffffffffffffffff1673ffffffffffffffffffffffffffffffffffffffff16815260200190815260200160002090506000816000018054905011610467576040517f08c379a000000000000000000000000000000000000000000000000000000000815260040161045e90610da5565b60405180910390fd5b6000600760003373ffffffffffffffffffffffffffffffffffffffff1673ffffffffffffffffffffffffffffffffffffffff1681526020019081526020016000209050806000018054806020026020016040519081016040528092919081815260200182805480156104f857602002820191906000526020600020905b8154815260200190600101908083116104e4575b50505050509250505090565b6000600660009054906101000a900473ffffffffffffffffffffffffffffffffffffffff1673ffffffffffffffffffffffffffffffffffffffff166370a08231336040518263ffffffff1660e01b81526004016105619190610c8d565b60206040518083038186803b15801561057957600080fd5b505afa15801561058d573d6000803e3d6000fd5b505050506040513d601f19601f820116820180604052508101906105b19190610b26565b116105f1576040517f08c379a00000000000000000000000000000000000000000000000000000000081526004016105e890610d65565b60405180910390fd5b80600460009054906101000a900473ffffffffffffffffffffffffffffffffffffffff1673ffffffffffffffffffffffffffffffffffffffff166370a08231336040518263ffffffff1660e01b815260040161064d9190610c8d565b60206040518083038186803b15801561066557600080fd5b505afa158015610679573d6000803e3d6000fd5b505050506040513d601f19601f8201168201806040525081019061069d9190610b26565b10156106de576040517f08c379a00000000000000000000000000000000000000000000000000000000081526004016106d590610d45565b60405180910390fd5b6000600760003373ffffffffffffffffffffffffffffffffffffffff1673ffffffffffffffffffffffffffffffffffffffff1681526020019081526020016000209050600460009054906101000a900473ffffffffffffffffffffffffffffffffffffffff1673ffffffffffffffffffffffffffffffffffffffff166323b872dd3330856040518463ffffffff1660e01b815260040161078093929190610ca8565b602060405180830381600087803b15801561079a57600080fd5b505af11580156107ae573d6000803e3d6000fd5b505050506040513d601f19601f820116820180604052508101906107d29190610ad4565b5080600001829080600181540180825580915050600190039060005260206000200160009091909190915055600081600101541180156108235750600254816001015461081f9190610e6f565b4210155b156108465760018160040160006101000a81548160ff0219169083151502179055505b8060040160009054906101000a900460ff16156108e357600060025482600101546108719190610e6f565b4261087c9190610f50565b905060006002548261088e9190610ec5565b90506064816001546108a09190610ef6565b84600201546108af9190610e6f565b6108b99190610ec5565b836003018190555082600301548360020160008282546108d99190610e6f565b9250508190555050505b818160020160008282546108f79190610e6f565b925050819055507f15eaef6b52cca0422fcfd03599b7a19d583624be50c7516f29664df698613aad33308460405161093193929190610ca8565b60405180910390a160008081548092919061094b90610fcc565b919050555042816001018190555060008160040160006101000a81548160ff0219169083151502179055505050565b600080600760003373ffffffffffffffffffffffffffffffffffffffff1673ffffffffffffffffffffffffffffffffffffffff16815260200190815260200160002090506000816000018054905011610a08576040517f08c379a00000000000000000000000000000000000000000000000000000000081526004016109ff90610da5565b60405180910390fd5b6000600760003373ffffffffffffffffffffffffffffffffffffffff1673ffffffffffffffffffffffffffffffffffffffff168152602001908152602001600020905080600201549250505090565b600081359050610a668161113d565b92915050565b600081519050610a7b81611154565b92915050565b600081359050610a908161116b565b92915050565b600081519050610aa58161116b565b92915050565b600060208284031215610abd57600080fd5b6000610acb84828501610a57565b91505092915050565b600060208284031215610ae657600080fd5b6000610af484828501610a6c565b91505092915050565b600060208284031215610b0f57600080fd5b6000610b1d84828501610a81565b91505092915050565b600060208284031215610b3857600080fd5b6000610b4684828501610a96565b91505092915050565b6000610b5b8383610c6f565b60208301905092915050565b610b7081610f84565b82525050565b6000610b8182610e35565b610b8b8185610e4d565b9350610b9683610e25565b8060005b83811015610bc7578151610bae8882610b4f565b9750610bb983610e40565b925050600181019050610b9a565b5085935050505092915050565b610bdd81610f96565b82525050565b6000610bf0601683610e5e565b9150610bfb82611073565b602082019050919050565b6000610c13601f83610e5e565b9150610c1e8261109c565b602082019050919050565b6000610c36602283610e5e565b9150610c41826110c5565b604082019050919050565b6000610c59600f83610e5e565b9150610c6482611114565b602082019050919050565b610c7881610fc2565b82525050565b610c8781610fc2565b82525050565b6000602082019050610ca26000830184610b67565b92915050565b6000606082019050610cbd6000830186610b67565b610cca6020830185610b67565b610cd76040830184610c7e565b949350505050565b6000604082019050610cf46000830185610b67565b610d016020830184610c7e565b9392505050565b60006020820190508181036000830152610d228184610b76565b905092915050565b6000602082019050610d3f6000830184610bd4565b92915050565b60006020820190508181036000830152610d5e81610be3565b9050919050565b60006020820190508181036000830152610d7e81610c06565b9050919050565b60006020820190508181036000830152610d9e81610c29565b9050919050565b60006020820190508181036000830152610dbe81610c4c565b9050919050565b6000602082019050610dda6000830184610c7e565b92915050565b6000608082019050610df56000830187610c7e565b610e026020830186610c7e565b610e0f6040830185610c7e565b610e1c6060830184610bd4565b95945050505050565b6000819050602082019050919050565b600081519050919050565b6000602082019050919050565b600082825260208201905092915050565b600082825260208201905092915050565b6000610e7a82610fc2565b9150610e8583610fc2565b9250827fffffffffffffffffffffffffffffffffffffffffffffffffffffffffffffffff03821115610eba57610eb9611015565b5b828201905092915050565b6000610ed082610fc2565b9150610edb83610fc2565b925082610eeb57610eea611044565b5b828204905092915050565b6000610f0182610fc2565b9150610f0c83610fc2565b9250817fffffffffffffffffffffffffffffffffffffffffffffffffffffffffffffffff0483118215151615610f4557610f44611015565b5b828202905092915050565b6000610f5b82610fc2565b9150610f6683610fc2565b925082821015610f7957610f78611015565b5b828203905092915050565b6000610f8f82610fa2565b9050919050565b60008115159050919050565b600073ffffffffffffffffffffffffffffffffffffffff82169050919050565b6000819050919050565b6000610fd782610fc2565b91507fffffffffffffffffffffffffffffffffffffffffffffffffffffffffffffffff82141561100a57611009611015565b5b600182019050919050565b7f4e487b7100000000000000000000000000000000000000000000000000000000600052601160045260246000fd5b7f4e487b7100000000000000000000000000000000000000000000000000000000600052601260045260246000fd5b7f416d6f756e7420657863656564732062616c616e636500000000000000000000600082015250565b7f4d757374206f776e20426f72656420417065204e465420746f207374616b6500600082015250565b7f5374616b65206973206e6f74206d617475726520666f7220776974686472617760008201527f616c000000000000000000000000000000000000000000000000000000000000602082015250565b7f4e6f207374616b657320666f756e640000000000000000000000000000000000600082015250565b61114681610f84565b811461115157600080fd5b50565b61115d81610f96565b811461116857600080fd5b50565b61117481610fc2565b811461117f57600080fd5b5056fea26469706673582212201d92b06bcbd1be1997d5aadae686b8b4d16a0a43894cc07e74cb26a7ed6c2bb364736f6c63430008040033",
  "linkReferences": {},
  "deployedLinkReferences": {}
}