{
  "_format": "hh-sol-artifact-1",
  "contractName": "StakingContract",
  "sourceName": "contracts/StakingContract.sol",
  "abi": [
    {
      "inputs": [
        {
          "internalType": "uint256",
          "name": "_interestInPercent",
          "type": "uint256"
        }
      ],
      "stateMutability": "nonpayable",
      "type": "constructor"
    },
    {
      "anonymous": false,
      "inputs": [
        {
          "indexed": false,
          "internalType": "address",
          "name": "_from",
          "type": "address"
        },
        {
          "indexed": false,
          "internalType": "address",
          "name": "_to",
          "type": "address"
        },
        {
          "indexed": false,
          "internalType": "uint256",
          "name": "_amount",
          "type": "uint256"
        }
      ],
      "name": "tokenTransfer",
      "type": "event"
    },
    {
      "inputs": [
        {
          "internalType": "address",
          "name": "",
          "type": "address"
        }
      ],
      "name": "addressStakes",
      "outputs": [
        {
          "internalType": "uint256",
          "name": "stakeTime",
          "type": "uint256"
        },
        {
          "internalType": "uint256",
          "name": "stakedBalance",
          "type": "uint256"
        },
        {
          "internalType": "uint256",
          "name": "stakeProfit",
          "type": "uint256"
        },
        {
          "internalType": "bool",
          "name": "stakeMaturity",
          "type": "bool"
        }
      ],
      "stateMutability": "view",
      "type": "function"
    },
    {
      "inputs": [
        {
          "internalType": "uint256",
          "name": "_amount",
          "type": "uint256"
        }
      ],
      "name": "stake",
      "outputs": [],
      "stateMutability": "nonpayable",
      "type": "function"
    },
    {
      "inputs": [],
      "name": "viewStakeBalance",
      "outputs": [
        {
          "internalType": "uint256",
          "name": "_balance",
          "type": "uint256"
        }
      ],
      "stateMutability": "view",
      "type": "function"
    },
    {
      "inputs": [],
      "name": "viewStakeHistory",
      "outputs": [
        {
          "internalType": "uint256[]",
          "name": "_stakes",
          "type": "uint256[]"
        }
      ],
      "stateMutability": "view",
      "type": "function"
    },
    {
      "inputs": [
        {
          "internalType": "uint256",
          "name": "_amount",
          "type": "uint256"
        }
      ],
      "name": "withdraw",
      "outputs": [
        {
          "internalType": "bool",
          "name": "success",
          "type": "bool"
        }
      ],
      "stateMutability": "nonpayable",
      "type": "function"
    }
  ],
  "bytecode": "0x6080604052600160005561012c60025573bc4ca0eda7647a8ab7c2061c2e118a18a936f13d600360006101000a81548173ffffffffffffffffffffffffffffffffffffffff021916908373ffffffffffffffffffffffffffffffffffffffff1602179055507396f3ce39ad2bfdcf92c0f6e2c2cabf83874660fc600460006101000a81548173ffffffffffffffffffffffffffffffffffffffff021916908373ffffffffffffffffffffffffffffffffffffffff1602179055503480156100c557600080fd5b5060405161140d38038061140d83398181016040528101906100e791906101cf565b80600181905550600460009054906101000a900473ffffffffffffffffffffffffffffffffffffffff16600560006101000a81548173ffffffffffffffffffffffffffffffffffffffff021916908373ffffffffffffffffffffffffffffffffffffffff160217905550600360009054906101000a900473ffffffffffffffffffffffffffffffffffffffff16600660006101000a81548173ffffffffffffffffffffffffffffffffffffffff021916908373ffffffffffffffffffffffffffffffffffffffff16021790555050610219565b6000815190506101c981610202565b92915050565b6000602082840312156101e157600080fd5b60006101ef848285016101ba565b91505092915050565b6000819050919050565b61020b816101f8565b811461021657600080fd5b50565b6111e5806102286000396000f3fe608060405234801561001057600080fd5b50600436106100575760003560e01c8063213eda301461005c5780632e1a7d4d1461008f578063a694fc3a146100bf578063b7877d57146100db578063e0af8a02146100f9575b600080fd5b61007660048036038101906100719190610b44565b610117565b6040516100869493929190610e36565b60405180910390f35b6100a960048036038101906100a49190610b96565b610154565b6040516100b69190610da0565b60405180910390f35b6100d960048036038101906100d49190610b96565b610462565b005b6100e36108d8565b6040516100f09190610d7e565b60405180910390f35b610101610a04565b60405161010e9190610e1b565b60405180910390f35b60076020528060005260406000206000915090508060010154908060020154908060030154908060040160009054906101000a900460ff16905084565b600080600760003373ffffffffffffffffffffffffffffffffffffffff1673ffffffffffffffffffffffffffffffffffffffff168152602001908152602001600020905060008160000180549050116101e2576040517f08c379a00000000000000000000000000000000000000000000000000000000081526004016101d990610dbb565b60405180910390fd5b6000600760003373ffffffffffffffffffffffffffffffffffffffff1673ffffffffffffffffffffffffffffffffffffffff16815260200190815260200160002090506000816001015411801561024a575060025481600101546102469190610ec5565b4210155b1561026d5760018160040160006101000a81548160ff0219169083151502179055505b8060040160009054906101000a900460ff161561030a57600060025482600101546102989190610ec5565b426102a39190610fa6565b90506000600254826102b59190610f1b565b90506064816001546102c79190610f4c565b84600201546102d69190610ec5565b6102e09190610f1b565b836003018190555082600301548360020160008282546103009190610ec5565b9250508190555050505b8381600201541015610351576040517f08c379a000000000000000000000000000000000000000000000000000000000815260040161034890610dfb565b60405180910390fd5b838160020160008282546103659190610fa6565b92505081905550600560009054906101000a900473ffffffffffffffffffffffffffffffffffffffff1673ffffffffffffffffffffffffffffffffffffffff1663a9059cbb33866040518363ffffffff1660e01b81526004016103c9929190610d55565b602060405180830381600087803b1580156103e357600080fd5b505af11580156103f7573d6000803e3d6000fd5b505050506040513d601f19601f8201168201806040525081019061041b9190610b6d565b50600192507f15eaef6b52cca0422fcfd03599b7a19d583624be50c7516f29664df698613aad30338660405161045393929190610d1e565b60405180910390a15050919050565b6000600660009054906101000a900473ffffffffffffffffffffffffffffffffffffffff1673ffffffffffffffffffffffffffffffffffffffff166370a08231336040518263ffffffff1660e01b81526004016104bf9190610d03565b60206040518083038186803b1580156104d757600080fd5b505afa1580156104eb573d6000803e3d6000fd5b505050506040513d601f19601f8201168201806040525081019061050f9190610bbf565b1161054f576040517f08c379a000000000000000000000000000000000000000000000000000000000815260040161054690610ddb565b60405180910390fd5b80600560009054906101000a900473ffffffffffffffffffffffffffffffffffffffff1673ffffffffffffffffffffffffffffffffffffffff166370a08231336040518263ffffffff1660e01b81526004016105ab9190610d03565b60206040518083038186803b1580156105c357600080fd5b505afa1580156105d7573d6000803e3d6000fd5b505050506040513d601f19601f820116820180604052508101906105fb9190610bbf565b101561063c576040517f08c379a000000000000000000000000000000000000000000000000000000000815260040161063390610dfb565b60405180910390fd5b6000600760003373ffffffffffffffffffffffffffffffffffffffff1673ffffffffffffffffffffffffffffffffffffffff1681526020019081526020016000209050600560009054906101000a900473ffffffffffffffffffffffffffffffffffffffff1673ffffffffffffffffffffffffffffffffffffffff166323b872dd3330856040518463ffffffff1660e01b81526004016106de93929190610d1e565b602060405180830381600087803b1580156106f857600080fd5b505af115801561070c573d6000803e3d6000fd5b505050506040513d601f19601f820116820180604052508101906107309190610b6d565b5080600001829080600181540180825580915050600190039060005260206000200160009091909190915055600081600101541180156107815750600254816001015461077d9190610ec5565b4210155b156107a45760018160040160006101000a81548160ff0219169083151502179055505b8060040160009054906101000a900460ff161561084157600060025482600101546107cf9190610ec5565b426107da9190610fa6565b90506000600254826107ec9190610f1b565b90506064816001546107fe9190610f4c565b846002015461080d9190610ec5565b6108179190610f1b565b836003018190555082600301548360020160008282546108379190610ec5565b9250508190555050505b818160020160008282546108559190610ec5565b925050819055507f15eaef6b52cca0422fcfd03599b7a19d583624be50c7516f29664df698613aad33308460405161088f93929190610d1e565b60405180910390a16000808154809291906108a990611022565b919050555042816001018190555060008160040160006101000a81548160ff0219169083151502179055505050565b60606000600760003373ffffffffffffffffffffffffffffffffffffffff1673ffffffffffffffffffffffffffffffffffffffff16815260200190815260200160002090506000816000018054905011610967576040517f08c379a000000000000000000000000000000000000000000000000000000000815260040161095e90610dbb565b60405180910390fd5b6000600760003373ffffffffffffffffffffffffffffffffffffffff1673ffffffffffffffffffffffffffffffffffffffff1681526020019081526020016000209050806000018054806020026020016040519081016040528092919081815260200182805480156109f857602002820191906000526020600020905b8154815260200190600101908083116109e4575b50505050509250505090565b600080600760003373ffffffffffffffffffffffffffffffffffffffff1673ffffffffffffffffffffffffffffffffffffffff16815260200190815260200160002090506000816000018054905011610a92576040517f08c379a0000000000000000000000000000000000000000000000000000000008152600401610a8990610dbb565b60405180910390fd5b6000600760003373ffffffffffffffffffffffffffffffffffffffff1673ffffffffffffffffffffffffffffffffffffffff168152602001908152602001600020905080600301548160020154610ae99190610ec5565b9250505090565b600081359050610aff8161116a565b92915050565b600081519050610b1481611181565b92915050565b600081359050610b2981611198565b92915050565b600081519050610b3e81611198565b92915050565b600060208284031215610b5657600080fd5b6000610b6484828501610af0565b91505092915050565b600060208284031215610b7f57600080fd5b6000610b8d84828501610b05565b91505092915050565b600060208284031215610ba857600080fd5b6000610bb684828501610b1a565b91505092915050565b600060208284031215610bd157600080fd5b6000610bdf84828501610b2f565b91505092915050565b6000610bf48383610ce5565b60208301905092915050565b610c0981610fda565b82525050565b6000610c1a82610e8b565b610c248185610ea3565b9350610c2f83610e7b565b8060005b83811015610c60578151610c478882610be8565b9750610c5283610e96565b925050600181019050610c33565b5085935050505092915050565b610c7681610fec565b82525050565b6000610c89601f83610eb4565b9150610c94826110c9565b602082019050919050565b6000610cac602a83610eb4565b9150610cb7826110f2565b604082019050919050565b6000610ccf601a83610eb4565b9150610cda82611141565b602082019050919050565b610cee81611018565b82525050565b610cfd81611018565b82525050565b6000602082019050610d186000830184610c00565b92915050565b6000606082019050610d336000830186610c00565b610d406020830185610c00565b610d4d6040830184610cf4565b949350505050565b6000604082019050610d6a6000830185610c00565b610d776020830184610cf4565b9392505050565b60006020820190508181036000830152610d988184610c0f565b905092915050565b6000602082019050610db56000830184610c6d565b92915050565b60006020820190508181036000830152610dd481610c7c565b9050919050565b60006020820190508181036000830152610df481610c9f565b9050919050565b60006020820190508181036000830152610e1481610cc2565b9050919050565b6000602082019050610e306000830184610cf4565b92915050565b6000608082019050610e4b6000830187610cf4565b610e586020830186610cf4565b610e656040830185610cf4565b610e726060830184610c6d565b95945050505050565b6000819050602082019050919050565b600081519050919050565b6000602082019050919050565b600082825260208201905092915050565b600082825260208201905092915050565b6000610ed082611018565b9150610edb83611018565b9250827fffffffffffffffffffffffffffffffffffffffffffffffffffffffffffffffff03821115610f1057610f0f61106b565b5b828201905092915050565b6000610f2682611018565b9150610f3183611018565b925082610f4157610f4061109a565b5b828204905092915050565b6000610f5782611018565b9150610f6283611018565b9250817fffffffffffffffffffffffffffffffffffffffffffffffffffffffffffffffff0483118215151615610f9b57610f9a61106b565b5b828202905092915050565b6000610fb182611018565b9150610fbc83611018565b925082821015610fcf57610fce61106b565b5b828203905092915050565b6000610fe582610ff8565b9050919050565b60008115159050919050565b600073ffffffffffffffffffffffffffffffffffffffff82169050919050565b6000819050919050565b600061102d82611018565b91507fffffffffffffffffffffffffffffffffffffffffffffffffffffffffffffffff8214156110605761105f61106b565b5b600182019050919050565b7f4e487b7100000000000000000000000000000000000000000000000000000000600052601160045260246000fd5b7f4e487b7100000000000000000000000000000000000000000000000000000000600052601260045260246000fd5b7f596f752068617665206e6f207374616b657320696e207468697320706f6f6c00600082015250565b7f536f7272792c20796f75206d757374206f776e20426f72656420417065204e4660008201527f5420746f207374616b6500000000000000000000000000000000000000000000602082015250565b7f416d6f756e742065786365656473204241542062616c616e6365000000000000600082015250565b61117381610fda565b811461117e57600080fd5b50565b61118a81610fec565b811461119557600080fd5b50565b6111a181611018565b81146111ac57600080fd5b5056fea2646970667358221220bd8ef421117814e9b4b509fbe5bcbf63da52a13fe320b1aa71b1e21f7d54196664736f6c63430008040033",
  "linkReferences": {},
  "deployedLinkReferences": {}
}