{
  "_format": "hh-sol-artifact-1",
  "contractName": "StakingContract",
  "sourceName": "contracts/StakingContract.sol",
  "abi": [
    {
      "inputs": [
        {
          "internalType": "uint256",
          "name": "_maturityPeriod",
          "type": "uint256"
        },
        {
          "internalType": "uint256",
          "name": "_interestInPercent",
          "type": "uint256"
        }
      ],
      "stateMutability": "nonpayable",
      "type": "constructor"
    },
    {
      "inputs": [
        {
          "internalType": "address",
          "name": "",
          "type": "address"
        }
      ],
      "name": "addressStakes",
      "outputs": [
        {
          "internalType": "uint256",
          "name": "stakeTime",
          "type": "uint256"
        },
        {
          "internalType": "uint256",
          "name": "stakedBalance",
          "type": "uint256"
        },
        {
          "internalType": "uint256",
          "name": "stakeProfit",
          "type": "uint256"
        },
        {
          "internalType": "bool",
          "name": "stakeMaturity",
          "type": "bool"
        }
      ],
      "stateMutability": "view",
      "type": "function"
    },
    {
      "inputs": [
        {
          "internalType": "uint256",
          "name": "_amount",
          "type": "uint256"
        }
      ],
      "name": "stake",
      "outputs": [],
      "stateMutability": "nonpayable",
      "type": "function"
    },
    {
      "inputs": [],
      "name": "viewStakeBalance",
      "outputs": [
        {
          "internalType": "uint256",
          "name": "_balance",
          "type": "uint256"
        }
      ],
      "stateMutability": "view",
      "type": "function"
    },
    {
      "inputs": [],
      "name": "viewStakes",
      "outputs": [
        {
          "internalType": "uint256[]",
          "name": "_stakes",
          "type": "uint256[]"
        }
      ],
      "stateMutability": "view",
      "type": "function"
    },
    {
      "inputs": [
        {
          "internalType": "uint256",
          "name": "_amount",
          "type": "uint256"
        }
      ],
      "name": "withdraw",
      "outputs": [
        {
          "internalType": "bool",
          "name": "success",
          "type": "bool"
        }
      ],
      "stateMutability": "nonpayable",
      "type": "function"
    }
  ],
  "bytecode": "0x60806040526001600055600460009054906101000a900473ffffffffffffffffffffffffffffffffffffffff16600360006101000a81548173ffffffffffffffffffffffffffffffffffffffff021916908373ffffffffffffffffffffffffffffffffffffffff16021790555073234d11e2382c47283fbbbe42835676058009bf18600460006101000a81548173ffffffffffffffffffffffffffffffffffffffff021916908373ffffffffffffffffffffffffffffffffffffffff160217905550600660009054906101000a900473ffffffffffffffffffffffffffffffffffffffff16600560006101000a81548173ffffffffffffffffffffffffffffffffffffffff021916908373ffffffffffffffffffffffffffffffffffffffff16021790555073bc4ca0eda7647a8ab7c2061c2e118a18a936f13d600660006101000a81548173ffffffffffffffffffffffffffffffffffffffff021916908373ffffffffffffffffffffffffffffffffffffffff16021790555034801561018557600080fd5b50604051620012b5380380620012b583398181016040528101906101a991906101d3565b81600281905550806001819055505050610230565b6000815190506101cd81610219565b92915050565b600080604083850312156101e657600080fd5b60006101f4858286016101be565b9250506020610205858286016101be565b9150509250929050565b6000819050919050565b6102228161020f565b811461022d57600080fd5b50565b61107580620002406000396000f3fe608060405234801561001057600080fd5b50600436106100575760003560e01c8063213eda301461005c5780632e1a7d4d1461008f57806397746c76146100bf578063a694fc3a146100dd578063e0af8a02146100f9575b600080fd5b61007660048036038101906100719190610a23565b610117565b6040516100869493929190610cec565b60405180910390f35b6100a960048036038101906100a49190610a75565b610154565b6040516100b69190610c56565b60405180910390f35b6100c761038b565b6040516100d49190610c34565b60405180910390f35b6100f760048036038101906100f29190610a75565b6104b7565b005b6101016108f2565b60405161010e9190610cd1565b60405180910390f35b60076020528060005260406000206000915090508060010154908060020154908060030154908060040160009054906101000a900460ff16905084565b600080600760003373ffffffffffffffffffffffffffffffffffffffff1673ffffffffffffffffffffffffffffffffffffffff168152602001908152602001600020905060008160000180549050116101e2576040517f08c379a00000000000000000000000000000000000000000000000000000000081526004016101d990610cb1565b60405180910390fd5b82600360009054906101000a900473ffffffffffffffffffffffffffffffffffffffff1673ffffffffffffffffffffffffffffffffffffffff166370a08231336040518263ffffffff1660e01b815260040161023e9190610be2565b60206040518083038186803b15801561025657600080fd5b505afa15801561026a573d6000803e3d6000fd5b505050506040513d601f19601f8201168201806040525081019061028e9190610a9e565b10156102cf576040517f08c379a00000000000000000000000000000000000000000000000000000000081526004016102c690610c71565b60405180910390fd5b600360009054906101000a900473ffffffffffffffffffffffffffffffffffffffff1673ffffffffffffffffffffffffffffffffffffffff166323b872dd3033866040518463ffffffff1660e01b815260040161032e93929190610bfd565b602060405180830381600087803b15801561034857600080fd5b505af115801561035c573d6000803e3d6000fd5b505050506040513d601f19601f820116820180604052508101906103809190610a4c565b506001915050919050565b60606000600760003373ffffffffffffffffffffffffffffffffffffffff1673ffffffffffffffffffffffffffffffffffffffff1681526020019081526020016000209050600081600001805490501161041a576040517f08c379a000000000000000000000000000000000000000000000000000000000815260040161041190610cb1565b60405180910390fd5b6000600760003373ffffffffffffffffffffffffffffffffffffffff1673ffffffffffffffffffffffffffffffffffffffff1681526020019081526020016000209050806000018054806020026020016040519081016040528092919081815260200182805480156104ab57602002820191906000526020600020905b815481526020019060010190808311610497575b50505050509250505090565b6000600560009054906101000a900473ffffffffffffffffffffffffffffffffffffffff1673ffffffffffffffffffffffffffffffffffffffff166370a08231336040518263ffffffff1660e01b81526004016105149190610be2565b60206040518083038186803b15801561052c57600080fd5b505afa158015610540573d6000803e3d6000fd5b505050506040513d601f19601f820116820180604052508101906105649190610a9e565b116105a4576040517f08c379a000000000000000000000000000000000000000000000000000000000815260040161059b90610c91565b60405180910390fd5b80600360009054906101000a900473ffffffffffffffffffffffffffffffffffffffff1673ffffffffffffffffffffffffffffffffffffffff166370a08231336040518263ffffffff1660e01b81526004016106009190610be2565b60206040518083038186803b15801561061857600080fd5b505afa15801561062c573d6000803e3d6000fd5b505050506040513d601f19601f820116820180604052508101906106509190610a9e565b1015610691576040517f08c379a000000000000000000000000000000000000000000000000000000000815260040161068890610c71565b60405180910390fd5b6000600760003373ffffffffffffffffffffffffffffffffffffffff1673ffffffffffffffffffffffffffffffffffffffff1681526020019081526020016000209050600360009054906101000a900473ffffffffffffffffffffffffffffffffffffffff1673ffffffffffffffffffffffffffffffffffffffff166323b872dd3330856040518463ffffffff1660e01b815260040161073393929190610bfd565b602060405180830381600087803b15801561074d57600080fd5b505af1158015610761573d6000803e3d6000fd5b505050506040513d601f19601f820116820180604052508101906107859190610a4c565b5080600001829080600181540180825580915050600190039060005260206000200160009091909190915055600081600101541180156107d6575060025481600101546107d29190610d7b565b4210155b156107f95760018160040160006101000a81548160ff0219169083151502179055505b8060040160009054906101000a900460ff161561089657600060025482600101546108249190610d7b565b4261082f9190610e5c565b90506000600254826108419190610dd1565b90506064816001546108539190610e02565b84600201546108629190610d7b565b61086c9190610dd1565b8360030181905550826003015483600201600082825461088c9190610d7b565b9250508190555050505b818160020160008282546108aa9190610d7b565b925050819055506000808154809291906108c390610ed8565b919050555042816001018190555060008160040160006101000a81548160ff0219169083151502179055505050565b600080600760003373ffffffffffffffffffffffffffffffffffffffff1673ffffffffffffffffffffffffffffffffffffffff16815260200190815260200160002090506000816000018054905011610980576040517f08c379a000000000000000000000000000000000000000000000000000000000815260040161097790610cb1565b60405180910390fd5b6000600760003373ffffffffffffffffffffffffffffffffffffffff1673ffffffffffffffffffffffffffffffffffffffff168152602001908152602001600020905080600201549250505090565b6000813590506109de81610ffa565b92915050565b6000815190506109f381611011565b92915050565b600081359050610a0881611028565b92915050565b600081519050610a1d81611028565b92915050565b600060208284031215610a3557600080fd5b6000610a43848285016109cf565b91505092915050565b600060208284031215610a5e57600080fd5b6000610a6c848285016109e4565b91505092915050565b600060208284031215610a8757600080fd5b6000610a95848285016109f9565b91505092915050565b600060208284031215610ab057600080fd5b6000610abe84828501610a0e565b91505092915050565b6000610ad38383610bc4565b60208301905092915050565b610ae881610e90565b82525050565b6000610af982610d41565b610b038185610d59565b9350610b0e83610d31565b8060005b83811015610b3f578151610b268882610ac7565b9750610b3183610d4c565b925050600181019050610b12565b5085935050505092915050565b610b5581610ea2565b82525050565b6000610b68601683610d6a565b9150610b7382610f7f565b602082019050919050565b6000610b8b601f83610d6a565b9150610b9682610fa8565b602082019050919050565b6000610bae600f83610d6a565b9150610bb982610fd1565b602082019050919050565b610bcd81610ece565b82525050565b610bdc81610ece565b82525050565b6000602082019050610bf76000830184610adf565b92915050565b6000606082019050610c126000830186610adf565b610c1f6020830185610adf565b610c2c6040830184610bd3565b949350505050565b60006020820190508181036000830152610c4e8184610aee565b905092915050565b6000602082019050610c6b6000830184610b4c565b92915050565b60006020820190508181036000830152610c8a81610b5b565b9050919050565b60006020820190508181036000830152610caa81610b7e565b9050919050565b60006020820190508181036000830152610cca81610ba1565b9050919050565b6000602082019050610ce66000830184610bd3565b92915050565b6000608082019050610d016000830187610bd3565b610d0e6020830186610bd3565b610d1b6040830185610bd3565b610d286060830184610b4c565b95945050505050565b6000819050602082019050919050565b600081519050919050565b6000602082019050919050565b600082825260208201905092915050565b600082825260208201905092915050565b6000610d8682610ece565b9150610d9183610ece565b9250827fffffffffffffffffffffffffffffffffffffffffffffffffffffffffffffffff03821115610dc657610dc5610f21565b5b828201905092915050565b6000610ddc82610ece565b9150610de783610ece565b925082610df757610df6610f50565b5b828204905092915050565b6000610e0d82610ece565b9150610e1883610ece565b9250817fffffffffffffffffffffffffffffffffffffffffffffffffffffffffffffffff0483118215151615610e5157610e50610f21565b5b828202905092915050565b6000610e6782610ece565b9150610e7283610ece565b925082821015610e8557610e84610f21565b5b828203905092915050565b6000610e9b82610eae565b9050919050565b60008115159050919050565b600073ffffffffffffffffffffffffffffffffffffffff82169050919050565b6000819050919050565b6000610ee382610ece565b91507fffffffffffffffffffffffffffffffffffffffffffffffffffffffffffffffff821415610f1657610f15610f21565b5b600182019050919050565b7f4e487b7100000000000000000000000000000000000000000000000000000000600052601160045260246000fd5b7f4e487b7100000000000000000000000000000000000000000000000000000000600052601260045260246000fd5b7f416d6f756e7420657863656564732062616c616e636500000000000000000000600082015250565b7f4d757374206f776e20426f72656420417065204e465420746f207374616b6500600082015250565b7f4e6f207374616b657320666f756e640000000000000000000000000000000000600082015250565b61100381610e90565b811461100e57600080fd5b50565b61101a81610ea2565b811461102557600080fd5b50565b61103181610ece565b811461103c57600080fd5b5056fea264697066735822122077bf947500c3b97b3d3be72923fc86536078e3bc4560f10f65053536de73e2f764736f6c63430008040033",
  "linkReferences": {},
  "deployedLinkReferences": {}
}